:100000000C942A000C9447000C9447000C94470071
:100010000C9447000C9447000C9447000C94470044
:100020000C9447000C9447000C9447000C94470034
:100030000C9447000C9447000C9447000C94470024
:100040000C940B0B0C9447000C9447000C94470045
:100050000C94470011241FBECFE5D8E0DEBFCDBF12
:1000600010E0A0E6B0E0E6E3F4E302C005900D92F4
:10007000AC3AB107D9F710E0ACEAB0E001C01D928C
:10008000AE3AB107E1F70E94BA180C94191A0C9411
:100090000000EF92FF920F931F937B018C0120E0F1
:1000A00030E040E05FE40E94490388238CF0C801FF
:1000B000B70120E030E040E05FE40E94C1010E940F
:1000C000A9039B01AC01205030404040504806C07D
:1000D000C801B7010E94A9039B01AC01B901CA0183
:1000E0001F910F91FF90EF900895A0E0B0E0EBE733
:1000F000F0E00C94E219DC012B01FA019C919230A2
:1001000008F439C1EB018881823008F433C194309E
:1001100069F4843009F02FC111969C91119789815F
:10012000981709F428C1A3E9B0E025C1843009F487
:1001300021C18230A9F4923009F01DC19A01AD01AC
:1001400088E0EA010990AE01E90109929E0181501F
:10015000C1F7E201898111969C918923818308C1AD
:10016000923009F407C112962D903C901397EB0141
:100170008A819B811496AD90BD90CD90DC901797AD
:10018000EC80FD800E811F819101281B390BB90184
:1001900037FF04C066277727621B730B6032710537
:1001A0000CF061C0121613066CF537014801062EDB
:1001B00004C096948794779467940A94D2F721E0C8
:1001C00030E040E050E004C0220F331F441F551FB1
:1001D0006A95D2F721503040404050402E213F21B7
:1001E00040235123211531054105510521F021E01E
:1001F00030E040E050E079018A01E628F72808293C
:1002000019293CC0232BD1F1260E371E350146019A
:10021000062E04C096948794779467940A94D2F734
:1002200021E030E040E050E004C0220F331F441FC3
:10023000551F6A95D2F721503040404050402A2146
:100240003B214C215D21211531054105510521F04E
:1002500021E030E040E050E059016A01A628B728CB
:10026000C828D9280BC0821593052CF01C01AA249C
:10027000BB24650103C0EE24FF24870111969C91E5
:10028000D20111968C91981709F445C0992339F041
:10029000A80197012A193B094C095D0906C0A6016E
:1002A00095012E193F09400B510B57FD08C01182D3
:1002B0003382228224833583468357831DC081E0A5
:1002C00081833382228288279927DC01821B930B4A
:1002D000A40BB50B84839583A683B7830DC0220F2F
:1002E000331F441F551F24833583468357838281E0
:1002F000938101979383828324813581468157813D
:10030000DA01C9010197A109B1098F5F9F4FAF4F72
:10031000BF4328F30BC0918333822282EA0CFB1C7B
:100320000C1D1D1DE482F5820683178383E0808304
:10033000248135814681578157FF1AC0C901AA27F8
:1003400097FDA095BA2F81709070A070B0705695EF
:10035000479537952795822B932BA42BB52B848318
:100360009583A683B7838281938101969383828349
:10037000DF0101C0D201CD01CDB7DEB7E2E10C94BF
:10038000FE19A0E2B0E0E7ECF1E00C94EE1969830D
:100390007A838B839C832D833E834F835887E9E048
:1003A000EE2EF12CEC0EFD1ECE010196B7010E943F
:1003B000D2048E010F5E1F4FCE010596B8010E9438
:1003C000D2048A8991E089278A8BC701B801AE01DE
:1003D000475E5F4F0E9475000E94FD03A096E6E015
:1003E0000C940A1AA0E2B0E0E8EFF1E00C94EE19E8
:1003F00069837A838B839C832D833E834F835887C5
:10040000F9E0EF2EF12CEC0EFD1ECE010196B701A6
:100410000E94D2048E010F5E1F4FCE010596B801D7
:100420000E94D204C701B801AE01475E5F4F0E942F
:1004300075000E94FD03A096E6E00C940A1AA0E263
:10044000B0E0E5E2F2E00C94E21969837A838B83F1
:100450009C832D833E834F835887CE010196BE0136
:10046000675F7F4F0E94D204CE010596BE016F5E8A
:100470007F4F0E94D2049985923088F0898982301A
:10048000C8F0943019F4823051F404C0843029F457
:10049000923081F483E990E0C6C0923049F420E0C4
:1004A0009A858A89981321E02A87CE010996BBC0D4
:1004B000823049F420E09A858A89981321E02A8BBA
:1004C000CE014196B0C02D843E844F8458886D88FB
:1004D0007E888F88988CEE24FF248701AA24BB2471
:1004E000650140E050E060E070E0E0E0F0E0C10174
:1004F00081709070892BE9F0E60CF71C081D191D1E
:100500009A01AB012A0D3B1D4C1D5D1D80E090E062
:10051000A0E0B0E0E614F7040805190520F481E036
:1005200090E0A0E0B0E0BA01A901480F591F6A1F8E
:100530007B1FAA0CBB1CCC1CDD1C97FE08C081E0F5
:1005400090E0A0E0B0E0A82AB92ACA2ADB2A3196B6
:10055000E032F10549F0660C771C881C991C569412
:10056000479437942794C3CFFA85EA892B893C892D
:100570008B859C85280F391F2E5F3F4F17C0CA01FE
:1005800081709070892B61F016950795F794E79428
:1005900080E090E0A0E0B0E8E82AF92A0A2B1B2BC3
:1005A00076956795579547952F5F3F4F77FDE7CF36
:1005B0000CC0440F551F661F771F17FD4160EE0CDE
:1005C000FF1C001F111F21503040403090E05907A0
:1005D00090E0690790E4790760F32B8F3C8FDB0193
:1005E000CA018F779070A070B07080349105A1051A
:1005F000B10561F447FD0AC0E114F10401051105DC
:1006000029F0405C5F4F6F4F7F4F40781A8EFE1786
:1006100011F081E08A8F4D8F5E8F6F8F78A383E01A
:10062000898FCE0149960E94FD03A096E2E10C94C9
:10063000FE19A8E1B0E0EFE1F3E00C94EE19698354
:100640007A838B839C832D833E834F83588789E0F5
:10065000E82EF12CEC0EFD1ECE010196B7010E9492
:10066000D2048E010F5E1F4FCE010596B8010E9485
:10067000D2048985823040F08989823028F0C70110
:10068000B8010E944A0501C08FEF6896E6E00C941D
:100690000A1AA8E1B0E0EFE4F3E00C94EE196983E4
:1006A0007A838B839C832D833E834F83588789E095
:1006B000E82EF12CEC0EFD1ECE010196B7010E9432
:1006C000D2048E010F5E1F4FCE010596B8010E9425
:1006D000D2048985823040F08989823028F0C701B0
:1006E000B8010E944A0501C08FEF6896E6E00C94BD
:1006F0000A1AA8E1B0E0EFE7F3E00C94EE19698381
:100700007A838B839C832D833E834F83588789E034
:10071000E82EF12CEC0EFD1ECE010196B7010E94D1
:10072000D2048E010F5E1F4FCE010596B8010E94C4
:10073000D2048985823040F08989823028F0C7014F
:10074000B8010E944A0501C081E06896E6E00C9479
:100750000A1AACE0B0E0EFEAF3E00C94F219698316
:100760007A838B839C83CE010196BE016B5F7F4FA2
:100770000E94D2048D81823061F1823050F1843048
:1007800021F48E81882351F12EC02F81388537FDC9
:1007900020C06E812F3131051CF06623F9F023C093
:1007A0008EE190E0821B930B29853A854B855C8511
:1007B00004C056954795379527958A95D2F76623B5
:1007C000B1F050954095309521953F4F4F4F5F4F79
:1007D0000EC020E030E040E050E009C02FEF3FEFD6
:1007E0004FEF5FE704C020E030E040E050E8B9019F
:1007F000CA012C96E2E00C940E1ADF92EF92FF925F
:100800000F931F93FC01E480F58006811781D1804E
:100810008081823048F480E090E0A0E1B0E0E82AF6
:10082000F92A0A2B1B2BA5C0843009F49FC0823003
:1008300021F4EE24FF24870105C0E114F104010531
:10084000110519F4E0E0F0E096C0628173819FEF3A
:10085000623879070CF05BC022E83FEF261B370BAC
:100860002A3131052CF020E030E040E050E02AC091
:10087000B801A701022E04C0769567955795479554
:100880000A94D2F781E090E0A0E0B0E004C0880FC5
:10089000991FAA1FBB1F2A95D2F70197A109B10979
:1008A0008E219F21A023B1230097A105B10521F03E
:1008B00081E090E0A0E0B0E09A01AB01282B392B59
:1008C0004A2B5B2BDA01C9018F779070A070B07052
:1008D00080349105A105B10539F427FF09C0205CDA
:1008E0003F4F4F4F5F4F04C0215C3F4F4F4F5F4F13
:1008F000E0E0F0E02030A0E03A07A0E04A07A0E402
:100900005A0710F0E1E0F0E079018A0127C0603871
:10091000710564F5FB01E158FF4FD801C7018F77DE
:100920009070A070B07080349105A105B10539F4C4
:10093000E7FE0DC080E490E0A0E0B0E004C08FE3EB
:1009400090E0A0E0B0E0E80EF91E0A1F1B1F17FFA1
:1009500005C016950795F794E794319687E01695AC
:100960000795F794E7948A95D1F705C0EE24FF2404
:100970008701EFEFF0E06E2F679566276795902F60
:100980009F77D794DD24D7948E2F8695492F462BB9
:10099000582F5D29B701CA011F910F91FF90EF9069
:1009A000DF900895FC01DB01408151812281622F9B
:1009B0006F7770E0221F2227221F9381892F880FD3
:1009C000822B282F30E0991F9927991F11969C930D
:1009D000119721153105A9F54115510561057105DD
:1009E00011F482E037C082E89FEF13969C938E93B8
:1009F00012979A01AB0167E0220F331F441F551F66
:100A00006A95D1F783E08C930DC0220F331F441FEA
:100A1000551F12968D919C911397019713969C9355
:100A20008E931297203080E0380780E0480780E4FA
:100A3000580758F314962D933D934D935C93179755
:100A400008952F3F310579F4411551056105710570
:100A500019F484E08C93089564FF03C081E08C93C3
:100A600012C01C9210C02F57304013963C932E9307
:100A7000129783E08C9387E0440F551F661F771F02
:100A80008A95D1F7706414964D935D936D937C9322
:100A9000179708951F93DC01FB019C91923008F495
:100AA00047C08081823008F443C0943051F41196DD
:100AB0001C91843099F58181682F70E0611B710968
:100AC0003FC0843021F0923031F48230B9F181811D
:100AD000882389F12DC011961C9111978230F1F075
:100AE00081811817D9F412962D913C911397828128
:100AF00093818217930794F028173907BCF0149656
:100B00008D919D910D90BC91A02D248135814681C0
:100B10005781281739074A075B0718F4112341F05A
:100B20000AC082179307A407B50740F4112319F0F0
:100B300061E070E005C06FEF7FEF02C060E070E041
:100B4000CB011F910895DF93CF93CDB7DEB72997DF
:100B50000FB6F894DEBF0FBECDBF6B837C838D8351
:100B60009E834F838B819C81AD81BE81880F991FAD
:100B7000AA1FBB1F880F991FAA1FBB1F880F991F91
:100B8000AA1FBB1F880F991FAA1FBB1F9C01AD0185
:100B900080E092E1AAE7B0E0BC01CD010E94C0195B
:100BA000DA01C90101979A838983E9E2F0E089813A
:100BB0008083E0E4F0E089819A81892F99278083FE
:100BC000AAE2B0E0EAE2F0E0808188608C93AAE2D9
:100BD000B0E0EAE2F0E0808180618C938F81282F81
:100BE00030E039872887888599858730910509F411
:100BF00057C028853985283031055CF4888599856A
:100C00008530910599F0288539852630310559F1CF
:100C10009DC0888599858830910509F45EC0288536
:100C200039852930310509F475C090C0A0E4B0E0E1
:100C3000E0E4F0E0808180688C93AAE2B0E0EAE230
:100C4000F0E080818B7F8C93A0E4B0E0E0E4F0E002
:100C500080818B7F8C93A0E4B0E0E0E4F0E08081C1
:100C60008D7F8C9373C0A0E4B0E0E0E4F0E080817D
:100C700080688C93AAE2B0E0EAE2F0E080818B7FAA
:100C80008C93A0E4B0E0E0E4F0E080818B7F8C9373
:100C9000A0E4B0E0E0E4F0E0808182608C9356C094
:100CA000A0E4B0E0E0E4F0E0808180688C93AAE208
:100CB000B0E0EAE2F0E080818B7F8C93A0E4B0E0CA
:100CC000E0E4F0E0808184608C93A0E4B0E0E0E4B4
:100CD000F0E080818D7F8C9339C0A0E4B0E0E0E447
:100CE000F0E0808180688C93AAE2B0E0EAE2F0E074
:100CF00080818B7F8C93A0E4B0E0E0E4F0E0808121
:100D000084608C93A0E4B0E0E0E4F0E08081826055
:100D10008C931CC0A0E4B0E0E0E4F0E08081806847
:100D20008C93AAE2B0E0EAE2F0E0808184608C93E8
:100D3000A0E4B0E0E0E4F0E0808184608C93A0E483
:100D4000B0E0E0E4F0E0808182608C9329960FB6F9
:100D5000F894DEBF0FBECDBFCF91DF910895DF9332
:100D6000CF9300D0CDB7DEB79A838983EBE2F0E072
:100D70008081882F90E080729070959587959595E9
:100D800087959595879595958795959587950097DE
:100D900069F3ECE2F0E0898180830F900F90CF91AE
:100DA000DF910895DF93CF93CDB7DEB7EBE2F0E0AC
:100DB0008081881F8827881F882F90E09070009777
:100DC000A9F3ECE2F0E08081882F90E0CF91DF91F1
:100DD0000895DF93CF9300D00F92CDB7DEB79A83FB
:100DE00089836B83EEE3F0E089819A81918380832C
:100DF000EDE3F0E08B818083ACE3B0E0ECE3F0E086
:100E0000808184608C93ACE3B0E0ECE3F0E080811F
:100E100082608C93ECE3F0E08081882F90E0827018
:100E200090709595879581309105A1F30F900F9063
:100E30000F90CF91DF910895DF93CF9300D0CDB77E
:100E4000DEB79A838983EEE3F0E089819A8191830A
:100E50008083ACE3B0E0ECE3F0E0808181608C93D0
:100E6000EDE3F0E080810F900F90CF91DF91089536
:100E7000DF93CF9300D00F92CDB7DEB789836A831B
:100E80004B838981882381F58B818823A9F4AAE388
:100E9000B0E0EAE3F0E08081482F8A81282F30E03B
:100EA00081E090E0022E02C0880F991F0A94E2F7B9
:100EB000809584238C93AFC08B81813009F0ABC0C7
:100EC000AAE3B0E0EAE3F0E08081482F8A81282F8E
:100ED00030E081E090E0022E02C0880F991F0A9452
:100EE000E2F7842B8C9397C08981813081F58B81C7
:100EF0008823A9F4A7E3B0E0E7E3F0E08081482F7E
:100F00008A81282F30E081E090E0022E02C0880F15
:100F1000991F0A94E2F7809584238C937CC08B817F
:100F2000813009F078C0A7E3B0E0E7E3F0E080812A
:100F3000482F8A81282F30E081E090E0022E02C005
:100F4000880F991F0A94E2F7842B8C9364C08981DF
:100F5000823081F58B818823A9F4A4E3B0E0E4E337
:100F6000F0E08081482F8A81282F30E081E090E0F6
:100F7000022E02C0880F991F0A94E2F780958423FD
:100F80008C9349C08B81813009F045C0A4E3B0E067
:100F9000E4E3F0E08081482F8A81282F30E081E06F
:100FA00090E0022E02C0880F991F0A94E2F7842B6A
:100FB0008C9331C08981833071F58B818823A9F4AA
:100FC000A1E3B0E0E1E3F0E08081482F8A81282F9F
:100FD00030E081E090E0022E02C0880F991F0A9451
:100FE000E2F7809584238C9316C08B81813099F42D
:100FF000A1E3B0E0E1E3F0E08081482F8A81282F6F
:1010000030E081E090E0022E02C0880F991F0A9420
:10101000E2F7842B8C930F900F900F90CF91DF917C
:101020000895DF93CF9300D00F92CDB7DEB78983B9
:101030006A834B838981882381F58B818823A9F476
:10104000ABE3B0E0EBE3F0E08081482F8A81282F0A
:1010500030E081E090E0022E02C0880F991F0A94D0
:10106000E2F7809584238C93AFC08B81813009F0A7
:10107000ABC0ABE3B0E0EBE3F0E08081482F8A81C6
:10108000282F30E081E090E0022E02C0880F991FE7
:101090000A94E2F7842B8C9397C08981813081F583
:1010A0008B818823A9F4A8E3B0E0E8E3F0E0808135
:1010B000482F8A81282F30E081E090E0022E02C084
:1010C000880F991F0A94E2F7809584238C937CC043
:1010D0008B81813009F078C0A8E3B0E0E8E3F0E06C
:1010E0008081482F8A81282F30E081E090E0022E15
:1010F00002C0880F991F0A94E2F7842B8C9364C076
:101100008981823081F58B818823A9F4A5E3B0E041
:10111000E5E3F0E08081482F8A81282F30E081E0EC
:1011200090E0022E02C0880F991F0A94E2F7809582
:1011300084238C9349C08B81813009F045C0A5E39D
:10114000B0E0E5E3F0E08081482F8A81282F30E08D
:1011500081E090E0022E02C0880F991F0A94E2F706
:10116000842B8C9331C08981833071F58B818823E6
:10117000A9F4A2E3B0E0E2E3F0E08081482F8A81A5
:10118000282F30E081E090E0022E02C0880F991FE6
:101190000A94E2F7809584238C9316C08B8181306A
:1011A00099F4A2E3B0E0E2E3F0E08081482F8A8185
:1011B000282F30E081E090E0022E02C0880F991FB6
:1011C0000A94E2F7842B8C930F900F900F90CF919D
:1011D000DF910895DF93CF9300D0CDB7DEB7898339
:1011E0006A8389818823A1F4ABE3B0E0EBE3F0E00C
:1011F0008081482F8A81282F30E081E090E0022E04
:1012000002C0880F991F0A94E2F784278C9344C088
:1012100089818130A1F4A8E3B0E0E8E3F0E08081C7
:10122000482F8A81282F30E081E090E0022E02C012
:10123000880F991F0A94E2F784278C932DC0898127
:101240008230A1F4A5E3B0E0E5E3F0E08081482F2F
:101250008A81282F30E081E090E0022E02C0880FC2
:10126000991F0A94E2F784278C9316C089818330F2
:1012700099F4A2E3B0E0E2E3F0E08081482F8A81B4
:10128000282F30E081E090E0022E02C0880F991FE5
:101290000A94E2F784278C930F900F90CF91DF91FF
:1012A0000895DF93CF9300D00F92CDB7DEB78A8336
:1012B0006B838A818823F1F4E9E3F0E08081482F91
:1012C00050E08B81282F30E081E090E002C0880F51
:1012D000991F2A95E2F79A01282339238B81882FB9
:1012E00090E0A90102C0559547958A95E2F7CA0199
:1012F000898362C08A818130F1F4E6E3F0E0808185
:10130000482F50E08B81282F30E081E090E002C030
:10131000880F991F2A95E2F79A01282339238B8198
:10132000882F90E0A90102C0559547958A95E2F76C
:10133000CA01898341C08A818230F1F4E3E3F0E09D
:101340008081482F50E08B81282F30E081E090E0B1
:1013500002C0880F991F2A95E2F79A0128233923A2
:101360008B81882F90E0A90102C0559547958A95F9
:10137000E2F7CA01898320C08A818330E9F4E0E37F
:10138000F0E08081482F50E08B81282F30E081E011
:1013900090E002C0880F991F2A95E2F79A0128234E
:1013A00039238B81882F90E0A90102C0559547957C
:1013B0008A95E2F7CA01898389810F900F900F9077
:1013C000CF91DF910895DF93CF9300D0CDB7DEB7F3
:1013D00089836A838981882329F4EBE3F0E08A8199
:1013E000808317C08981813029F4E8E3F0E08A81A5
:1013F00080830FC08981823029F4E5E3F0E08A819F
:10140000808307C08981833021F4E2E3F0E08A81A0
:1014100080830F900F90CF91DF910895DF93CF934A
:101420000F92CDB7DEB789838981882341F4ABE37E
:10143000B0E0EBE3F0E0808180958C9320C089815F
:10144000813041F4A8E3B0E0E8E3F0E080818095EA
:101450008C9315C08981823041F4A5E3B0E0E5E3C7
:10146000F0E0808180958C930AC08981833039F4C3
:10147000A2E3B0E0E2E3F0E0808180958C930F90EE
:10148000CF91DF910895DF93CF9300D0CDB7DEB732
:101490008A838A81882329F4E9E3F0E080818983C3
:1014A00017C08A81813029F4E6E3F0E080818983E6
:1014B0000FC08A81823029F4E3E3F0E080818983E0
:1014C00007C08A81833021F4E0E3F0E080818983E2
:1014D00089810F900F90CF91DF910895DF93CF9383
:1014E00000D0CDB7DEB789836A83A7E2B0E0E7E238
:1014F000F0E08081282F8A81882F90E00024969543
:1015000087950794969587950794982F802D822B21
:101510008C93A6E2B0E0E6E2F0E090818981892B2D
:101520008C93A7E2B0E0E7E2F0E080818F7D8C93BE
:10153000A6E2B0E0E6E2F0E0808188608C93AFE55F
:10154000B0E0EFE5F0E0808180688C93A6E2B0E047
:10155000E6E2F0E0808180688C930F900F90CF914D
:10156000DF910895DF93CF930F92CDB7DEB78983D4
:10157000A7E2B0E0E7E2F0E090818981892B8C93CB
:10158000A6E2B0E0E6E2F0E0808180648C930F9008
:10159000CF91DF910895DF93CF93CDB7DEB7E6E229
:1015A000F0E08081882F90E080719070959587950C
:1015B000959587959595879595958795009779F356
:1015C000A6E2B0E0E6E2F0E0808180618C93E4E2A4
:1015D000F0E080819181CF91DF910895DF93CF93E7
:1015E000CDB7DEB7E4E2F0E080819181CF91DF9169
:1015F0000895DF93CF9300D0CDB7DEB79A83898368
:1016000089819A819093AD008093AC000F900F90E8
:10161000CF91DF9108951F920F920FB60F92112470
:101620002F933F934F935F936F937F938F939F93EA
:10163000AF93BF93EF93FF93DF93CF93CDB7DEB715
:10164000E091AC00F091AD000995CF91DF91FF9151
:10165000EF91BF91AF919F918F917F916F915F912A
:101660004F913F912F910F900FBE0F901F901895A3
:10167000DF93CF9300D00F92CDB7DEB789838981F6
:10168000282F30E03B832A838A819B818230910519
:10169000E1F02A813B812330310534F48A819B813A
:1016A0008130910561F022C02A813B8123303105D0
:1016B00091F08A819B818430910599F017C080E078
:1016C00063E041E00E94380711C080E062E041E041
:1016D0000E9438070BC081E065E041E00E943807B6
:1016E00005C081E066E041E00E94380781E060E0EB
:1016F00041E00E94380781E061E041E00E94380744
:1017000081E062E041E00E94380781E064E041E06E
:101710000E94380781E00E949C0B82E00E949C0B93
:1017200083E00E949C0B84E00E949C0B0F900F9022
:101730000F90CF91DF910895DF93CF9300D00F9258
:10174000CDB7DEB789838981282F30E03B832A8398
:101750008A819B8182309105E1F02A813B8123308F
:10176000310534F48A819B818130910561F022C07A
:101770002A813B812330310591F08A819B8184301D
:10178000910599F017C080E063E041E00E941108E4
:1017900011C080E062E041E00E9411080BC081E0CE
:1017A00065E041E00E94110805C081E066E041E08B
:1017B0000E9411080F900F900F90CF91DF91089524
:1017C000DF93CF9300D000D0CDB7DEB789836A8393
:1017D0008981282F30E03C832B838B819C81823050
:1017E0009105E1F02B813C812330310534F48B816C
:1017F0009C818130910561F022C02B813C81233096
:10180000310591F08B819C818430910599F017C04E
:1018100080E063E040E00E94110811C080E062E0D7
:1018200040E00E9411080BC081E065E040E00E94AA
:10183000110805C081E066E040E00E9411088A813D
:10184000982F917081E060E0492F0E9411088A81F1
:10185000882F90E08270907095958795982F81E001
:1018600061E0492F0E9411088A81882F90E08470DE
:1018700090709595879595958795982F81E062E072
:10188000492F0E9411088A81882F90E088709070FB
:10189000959587959595879595958795982F81E04E
:1018A00064E0492F0E9411080F900F900F900F9045
:1018B000CF91DF910895DF93CF93CDB7DEB782E06C
:1018C00060E041E00E94380782E061E041E00E9470
:1018D0003807CF91DF910895DF93CF93CDB7DEB76F
:1018E00082E060E041E00E94110882E061E040E0B7
:1018F0000E941108CF91DF910895DF93CF93CDB768
:10190000DEB782E060E040E00E94110882E061E022
:1019100041E00E941108CF91DF910895DF93CF93AA
:10192000CDB7DEB782E060E040E00E94110882E0BF
:1019300061E040E00E941108CF91DF910895DF93AC
:10194000CF93CDB7DEB787E061E00E946E0ACF91FA
:10195000DF910895EF92FF920F931F93DF93CF9340
:10196000CDB7DEB72F970FB6F894DEBF0FBECDBF51
:101970008F871C861B861F82188619861A861E82F0
:101980001D821C828FEF93E09B838A831E823EC060
:101990008F850E94B20A0E94CB0A9C878B872B8579
:1019A0003C858C819D818217930720F48B859C85D3
:1019B0009D838C832B853C858A819B8128173907E1
:1019C00020F48B859C859B838A838B859C859C01D9
:1019D00040E050E08F819885A985BA85820F931FDA
:1019E000A41FB51F8F839887A987BA871E861D8677
:1019F00005C08D859E8501969E878D878D859E85E8
:101A000084369105B0F38E818F5F8E838E8187300F
:101A100008F4BECF8C819D819C0140E050E08F8115
:101A20009885A985BA857C018D01E21AF30A040B19
:101A3000150BA80197018A819B81CC01A0E0B0E041
:101A400079018A01E81AF90A0A0B1B0BD801C701B0
:101A50008F839887A987BA878F819885A985BA854A
:101A600025E030E040E050E0BC01CD010E94C0190B
:101A7000DA01C9019C878B878B859C85CC01A0E00E
:101A8000B0E024EF31E040E050E0BC01CD010E9425
:101A90009519DC01CB01072E7AE0B695A7959795AD
:101AA00087957A95D1F7702D898389812F960FB606
:101AB000F894DEBF0FBECDBFCF91DF911F910F9184
:101AC000FF90EF900895DF93CF9300D00F92CDB7A2
:101AD000DEB789838981282F30E03B832A838A817E
:101AE0009B818130910501F12A813B8122303105B2
:101AF0002CF48A819B810097E9F021C02A813B81E7
:101B00002230310559F08A819B8183309105B9F4E7
:101B100081E067E041E00E94380711C080E065E0A5
:101B200041E00E9438070BC080E066E041E00E947F
:101B3000380705C080E064E041E00E9438070F905C
:101B40000F900F90CF91DF910895DF93CF9300D046
:101B50000F92CDB7DEB789838981282F30E03B8390
:101B60002A838A819B818130910501F12A813B8101
:101B7000223031052CF48A819B810097E9F021C045
:101B80002A813B812230310559F08A819B81833043
:101B90009105B9F481E067E041E00E94110811C0AD
:101BA00080E065E041E00E9411080BC080E066E043
:101BB00041E00E94110805C080E064E041E00E941D
:101BC00011080F900F900F90CF91DF910895DF9340
:101BD000CF9300D00F92CDB7DEB789838981282FAC
:101BE00030E03B832A838A819B818130910501F11A
:101BF0002A813B81223031052CF48A819B81009718
:101C0000E9F021C02A813B812230310559F08A81D7
:101C10009B8183309105B9F481E067E040E00E9448
:101C2000110811C080E065E040E00E9411080BC07F
:101C300080E066E040E00E94110805C080E064E0BA
:101C400040E00E9411080F900F900F90CF91DF910C
:101C50000895DF93CF9300D00F92CDB7DEB789837D
:101C60008981282F30E03B832A838A819B818130C0
:101C70009105F1F02A813B81223031052CF48A81D3
:101C80009B810097D1F01DC02A813B812230310514
:101C900051F08A819B818330910599F481E067E05E
:101CA0000E94EA080EC080E065E00E94EA0809C0D0
:101CB00080E066E00E94EA0804C080E064E00E94E0
:101CC000EA080F900F900F90CF91DF9108950F9336
:101CD0001F93DF93CF93CDB7DEB7C455D0400FB677
:101CE000F894DEBF0FBECDBFFE01EF5AFF4F80E07C
:101CF00090E0A8E4B2E480839183A283B3838E0151
:101D0000035B1F4FFE01EF5AFF4F6081718182819B
:101D1000938120E030E04AEF54E40E941F02DC018E
:101D2000CB01F80180839183A283B383FE01E35B3F
:101D3000FF4F608171818281938120E030E040E833
:101D40005FE30E947903882344F4FE01E55BFF4FC3
:101D500081E090E09183808364C0FE01E35BFF4FEC
:101D6000608171818281938120E03FEF4FE757E4EA
:101D70000E94190318160CF043C0FE01EF5AFF4FE2
:101D8000608171818281938120E030E040E251E402
:101D90000E941F02DC01CB018E01055B1F4FBC01BD
:101DA000CD010E944900DC01CB01F80191838083C1
:101DB0001FC0FE01E75BFF4F88EC90E091838083BA
:101DC000FE01E75BFF4F808191810197F1F7FE01F2
:101DD000E75BFF4F91838083DE01A55BBF4FFE0170
:101DE000E55BFF4F80819181019711969C938E93C3
:101DF000FE01E55BFF4F808191810097D1F627C0FE
:101E00008E01055B1F4FFE01E35BFF4F6081718117
:101E1000828193810E944900DC01CB01F80191830A
:101E20008083DE01A95BBF4FFE01E55BFF4F808130
:101E300091818D939C93FE01E95BFF4F808191819D
:101E40000197F1F7FE01E95BFF4F9183808380E00A
:101E500063E041E00E94380780E062E041E00E94D8
:101E6000380781E060E041E00E94380781E061E0EE
:101E700041E00E94380781E062E041E00E943807BB
:101E800081E064E041E00E94380782E00E94AD11E9
:101E9000FE01ED5BFF4F80E090E0A0E8BFE38083B0
:101EA0009183A283B3838E01015C1F4FFE01ED5B22
:101EB000FF4F608171818281938120E030E04AEFA1
:101EC00054E40E941F02DC01CB01F801808391835E
:101ED000A283B383FE01FF96608171818281938129
:101EE00020E030E040E85FE30E94790388232CF48F
:101EF00081E090E09EAF8DAF46C0FE01FF9660810D
:101F000071818281938120E03FEF4FE757E40E9487
:101F10001903181664F5FE01ED5BFF4F60817181B6
:101F20008281938120E030E040E251E40E941F0270
:101F3000DC01CB01BC01CD010E944900DC01CB01D9
:101F40009EAF8DAF0FC088EC90E09CAF8BAF8BAD98
:101F50009CAD0197F1F79CAF8BAF8DAD9EAD019716
:101F60009EAF8DAF8DAD9EAD009769F716C0FE0197
:101F7000FF9660817181828193810E944900DC011A
:101F8000CB019EAF8DAF8DAD9EAD9AAF89AF89ADC0
:101F90009AAD0197F1F79AAF89AF88E20E94AD112F
:101FA00080E090E0A0E8BFE38DAB9EABAFABB8AFF5
:101FB0006DA97EA98FA998AD20E030E04AEF54E4E6
:101FC0000E941F02DC01CB0189AB9AABABABBCAB6F
:101FD00069A97AA98BA99CA920E030E040E85FE3D9
:101FE0000E94790388232CF481E090E098AB8FA7BE
:101FF0003FC069A97AA98BA99CA920E03FEF4FE7D0
:1020000057E40E94190318164CF56DA97EA98FA9F3
:1020100098AD20E030E040E251E40E941F02DC0174
:10202000CB01BC01CD010E944900DC01CB0198AB82
:102030008FA70FC088EC90E09EA78DA78DA59EA5C9
:102040000197F1F79EA78DA78FA598A9019798AB47
:102050008FA78FA598A9009769F714C069A97AA9D5
:102060008BA99CA90E944900DC01CB0198AB8FA7EA
:102070008FA598A99CA78BA78BA59CA50197F1F785
:102080009CA78BA78EE00E94AD1180E090E0A0E8B5
:10209000BFE38FA398A7A9A7BAA76FA178A589A521
:1020A0009AA520E030E04AEF54E40E941F02DC01D0
:1020B000CB018BA39CA3ADA3BEA36BA17CA18DA1DF
:1020C0009EA120E030E040E85FE30E94790388238E
:1020D0002CF481E090E09AA389A33FC06BA17CA17E
:1020E0008DA19EA120E03FEF4FE757E40E94190326
:1020F00018164CF56FA178A589A59AA520E030E0C7
:1021000040E251E40E941F02DC01CB01BC01CD0181
:102110000E944900DC01CB019AA389A30FC088EC7F
:1021200090E098A38F8F8F8D98A10197F1F798A3D6
:102130008F8F89A19AA101979AA389A389A19AA1B6
:10214000009769F714C06BA17CA18DA19EA10E948C
:102150004900DC01CB019AA389A389A19AA19E8F92
:102160008D8F8D8D9E8D0197F1F79E8F8D8F81E0E4
:102170000E94AD1180E090E0A0EAB0E4898F9A8FD0
:10218000AB8FBC8F698D7A8D8B8D9C8D20E030E07C
:102190004AEF54E40E941F02DC01CB018D8B9E8B21
:1021A000AF8BB88F6D897E898F89988D20E030E064
:1021B00040E85FE30E94790388232CF481E090E0FB
:1021C0009C8B8B8B3FC06D897E898F89988D20E099
:1021D0003FEF4FE757E40E94190318164CF5698D3D
:1021E0007A8D8B8D9C8D20E030E040E251E40E949E
:1021F0001F02DC01CB01BC01CD010E944900DC01C2
:10220000CB019C8B8B8B0FC088EC90E09A8B898BD9
:1022100089899A890197F1F79A8B898B8B899C8997
:1022200001979C8B8B8B8B899C89009769F714C0D5
:102230006D897E898F89988D0E944900DC01CB01D0
:102240009C8B8B8B8B899C89988B8F878F859889AA
:102250000197F1F7988B8F8786E00E94AD1180E09F
:1022600090E0A0E8BFE38B879C87AD87BE876B8536
:102270007C858D859E8520E030E04AEF54E40E9405
:102280001F02DC01CB018F839887A987BA876F81F2
:10229000788589859A8520E030E040E85FE30E94F8
:1022A000790388232CF481E090E09E838D833FC0E6
:1022B0006F81788589859A8520E03FEF4FE757E465
:1022C0000E94190318164CF56B857C858D859E85BB
:1022D00020E030E040E251E40E941F02DC01CB012B
:1022E000BC01CD010E944900DC01CB019E838D839E
:1022F0000FC088EC90E09C838B838B819C8101973D
:10230000F1F79C838B838D819E8101979E838D83C2
:102310008D819E81009769F714C06F8178858985CA
:102320009A850E944900DC01CB019E838D838D81BB
:102330009E819A83898389819A810197F1F79A8393
:102340008983CC5ADF4F0FB6F894DEBF0FBECDBFE6
:10235000CF91DF911F910F910895DF93CF93CDB768
:10236000DEB76F970FB6F894DEBF0FBECDBF8F8F6D
:102370008F8D82958F708E8F8F8D8F708D8F80E077
:1023800063E040E00E9411088E8D982F917081E0EB
:1023900060E0492F0E9411088E8D882F90E0827096
:1023A000907095958795982F81E061E0492F0E9464
:1023B00011088E8D882F90E0847090709595879588
:1023C00095958795982F81E062E0492F0E9411082A
:1023D0008E8D882F90E08870907095958795959553
:1023E000879595958795982F81E064E0492F0E9405
:1023F000110880E062E041E00E94110880E090E076
:10240000A0E8BFE3898F9A8FAB8FBC8F698D7A8DDF
:102410008B8D9C8D20E030E04AEF54E40E941F0237
:10242000DC01CB018D8B9E8BAF8BB88F6D897E8944
:102430008F89988D20E030E040E85FE30E947903C7
:1024400088232CF481E090E09C8B8B8B3FC06D89BE
:102450007E898F89988D20E03FEF4FE757E40E94F7
:10246000190318164CF5698D7A8D8B8D9C8D20E0A3
:1024700030E040E251E40E941F02DC01CB01BC01CC
:10248000CD010E944900DC01CB019C8B8B8B0FC0DE
:1024900088EC90E09A8B898B89899A890197F1F76A
:1024A0009A8B898B8B899C8901979C8B8B8B8B89D1
:1024B0009C89009769F714C06D897E898F89988DF2
:1024C0000E944900DC01CB019C8B8B8B8B899C8902
:1024D000988B8F878F8598890197F1F7988B8F87D5
:1024E00080E062E040E00E94110880E063E040E0AC
:1024F0000E9411088D8D982F917081E060E0492F26
:102500000E9411088D8D882F90E0827090709595B3
:102510008795982F81E061E0492F0E9411088D8DE9
:10252000882F90E084709070959587959595879504
:10253000982F81E062E0492F0E9411088D8D882F2D
:1025400090E088709070959587959595879595956D
:102550008795982F81E064E0492F0E94110880E060
:1025600062E041E00E94110880E090E0A0E8BFE353
:102570008B879C87AD87BE876B857C858D859E8587
:1025800020E030E04AEF54E40E941F02DC01CB015E
:102590008F839887A987BA876F81788589859A857F
:1025A00020E030E040E85FE30E94790388232CF4C8
:1025B00081E090E09E838D833FC06F81788589851F
:1025C0009A8520E03FEF4FE757E40E941903181661
:1025D0004CF56B857C858D859E8520E030E040E262
:1025E00051E40E941F02DC01CB01BC01CD010E941D
:1025F0004900DC01CB019E838D830FC088EC90E005
:102600009C838B838B819C810197F1F79C838B83C7
:102610008D819E8101979E838D838D819E81009700
:1026200069F714C06F81788589859A850E94490071
:10263000DC01CB019E838D838D819E819A8389836A
:1026400089819A810197F1F79A83898380E062E01A
:1026500040E00E9411086F960FB6F894DEBF0FBEDF
:10266000CDBFCF91DF910895DF93CF93CDB7DEB784
:102670006F970FB6F894DEBF0FBECDBF8F8F8F8DD3
:1026800082958F708E8F8F8D8F708D8F80E063E03D
:1026900041E00E9411088E8D982F917081E060E0DA
:1026A000492F0E9411088E8D882F90E082709070C3
:1026B00095958795982F81E061E0492F0E94110838
:1026C0008E8D882F90E08470907095958795959564
:1026D0008795982F81E062E0492F0E9411088E8D26
:1026E000882F90E08870907095958795959587953F
:1026F00095958795982F81E064E0492F0E941108F5
:1027000080E062E041E00E94110880E090E0A0E8F3
:10271000BFE3898F9A8FAB8FBC8F698D7A8D8B8D3C
:102720009C8D20E030E04AEF54E40E941F02DC015F
:10273000CB018D8B9E8BAF8BB88F6D897E898F89F6
:10274000988D20E030E040E85FE30E947903882321
:102750002CF481E090E09C8B8B8B3FC06D897E894F
:102760008F89988D20E03FEF4FE757E40E941903CF
:1027700018164CF5698D7A8D8B8D9C8D20E030E09C
:1027800040E251E40E941F02DC01CB01BC01CD01FB
:102790000E944900DC01CB019C8B8B8B0FC088EC25
:1027A00090E09A8B898B89899A890197F1F79A8BA6
:1027B000898B8B899C8901979C8B8B8B8B899C89BE
:1027C000009769F714C06D897E898F89988D0E9462
:1027D0004900DC01CB019C8B8B8B8B899C89988B6E
:1027E0008F878F8598890197F1F7988B8F8780E085
:1027F00062E040E00E94110880E063E041E00E9456
:1028000011088D8D982F917081E060E0492F0E9412
:1028100011088D8D882F90E0827090709595879526
:10282000982F81E061E0492F0E9411088D8D882F3B
:1028300090E0847090709595879595958795982FE1
:1028400081E062E0492F0E9411088D8D882F90E071
:1028500088709070959587959595879595958795AE
:10286000982F81E064E0492F0E94110880E062E027
:1028700041E00E94110880E090E0A0E8BFE38B8770
:102880009C87AD87BE876B857C858D859E8520E086
:1028900030E04AEF54E40E941F02DC01CB018F8339
:1028A0009887A987BA876F81788589859A8520E07E
:1028B00030E040E85FE30E94790388232CF481E054
:1028C00090E09E838D833FC06F81788589859A854E
:1028D00020E03FEF4FE757E40E94190318164CF52C
:1028E0006B857C858D859E8520E030E040E251E45B
:1028F0000E941F02DC01CB01BC01CD010E944900F6
:10290000DC01CB019E838D830FC088EC90E09C831B
:102910008B838B819C810197F1F79C838B838D81C5
:102920009E8101979E838D838D819E81009769F79B
:1029300014C06F81788589859A850E944900DC01E1
:10294000CB019E838D838D819E819A83898389812A
:102950009A810197F1F79A83898380E062E040E0F1
:102960000E9411086F960FB6F894DEBF0FBECDBF60
:10297000CF91DF910895DF93CF9300D00F92CDB721
:10298000DEB79B838A8319820EC08981282F30E0AD
:102990008A819B81FC01E20FF31F80810E94341326
:1029A00089818F5F89838981282F30E08A819B818B
:1029B000FC01E20FF31F8081882339F70F900F90FD
:1029C0000F90CF91DF910895DF93CF93CDB7DEB70E
:1029D0002E970FB6F894DEBF0FBECDBF81E00E94E8
:1029E000AD1180E090E0A0EAB0E48B879C87AD87D2
:1029F000BE876B857C858D859E8520E030E04AEF23
:102A000054E40E941F02DC01CB018F839887A987C1
:102A1000BA876F81788589859A8520E030E040E823
:102A20005FE30E94790388232CF481E090E09E8389
:102A30008D833FC06F81788589859A8520E03FEF3F
:102A40004FE757E40E94190318164CF56B857C85F7
:102A50008D859E8520E030E040E251E40E941F0217
:102A6000DC01CB01BC01CD010E944900DC01CB019E
:102A70009E838D830FC088EC90E09C838B838B8139
:102A80009C810197F1F79C838B838D819E810197B7
:102A90009E838D838D819E81009769F714C06F811D
:102AA000788589859A850E944900DC01CB019E8347
:102AB0008D838D819E819A83898389819A810197F3
:102AC000F1F79A8389832E960FB6F894DEBF0FBE76
:102AD000CDBFCF91DF910895DF93CF93CDB7DEB710
:102AE0002E970FB6F894DEBF0FBECDBF88E10E94CF
:102AF000AD1180E090E0A0E8BFE38B879C87AD87B5
:102B0000BE876B857C858D859E8520E030E04AEF11
:102B100054E40E941F02DC01CB018F839887A987B0
:102B2000BA876F81788589859A8520E030E040E812
:102B30005FE30E94790388232CF481E090E09E8378
:102B40008D833FC06F81788589859A8520E03FEF2E
:102B50004FE757E40E94190318164CF56B857C85E6
:102B60008D859E8520E030E040E251E40E941F0206
:102B7000DC01CB01BC01CD010E944900DC01CB018D
:102B80009E838D830FC088EC90E09C838B838B8128
:102B90009C810197F1F79C838B838D819E810197A6
:102BA0009E838D838D819E81009769F714C06F810C
:102BB000788589859A850E944900DC01CB019E8336
:102BC0008D838D819E819A83898389819A810197E2
:102BD000F1F79A8389832E960FB6F894DEBF0FBE65
:102BE000CDBFCF91DF910895DF93CF93CDB7DEB7FF
:102BF0002E970FB6F894DEBF0FBECDBF8CE10E94BA
:102C0000AD1180E090E0A0E8BFE38B879C87AD87A3
:102C1000BE876B857C858D859E8520E030E04AEF00
:102C200054E40E941F02DC01CB018F839887A9879F
:102C3000BA876F81788589859A8520E030E040E801
:102C40005FE30E94790388232CF481E090E09E8367
:102C50008D833FC06F81788589859A8520E03FEF1D
:102C60004FE757E40E94190318164CF56B857C85D5
:102C70008D859E8520E030E040E251E40E941F02F5
:102C8000DC01CB01BC01CD010E944900DC01CB017C
:102C90009E838D830FC088EC90E09C838B838B8117
:102CA0009C810197F1F79C838B838D819E81019795
:102CB0009E838D838D819E81009769F714C06F81FB
:102CC000788589859A850E944900DC01CB019E8325
:102CD0008D838D819E819A83898389819A810197D1
:102CE000F1F79A8389832E960FB6F894DEBF0FBE54
:102CF000CDBFCF91DF910895DF93CF9300D000D067
:102D00000F92CDB7DEB78A836B8319828A81282F11
:102D100030E03D832C838C819D8181309105C9F009
:102D20002C813D81223031052CF48C819D810097CE
:102D300061F01AC02C813D812230310571F08C8107
:102D40009D818330910569F00FC08B818058898304
:102D50000BC08B818054898307C08B818C568983FB
:102D600003C08B818C52898389810E94AD110F90A1
:102D70000F900F900F900F90CF91DF910895DF93F8
:102D8000CF93CDB7DEB782E065E041E00E9438071F
:102D900082E064E041E00E94380782E063E041E0C5
:102DA0000E94380782E062E041E00E94380783E039
:102DB00067E040E00E94380783E066E040E00E9460
:102DC000380783E065E040E00E94380783E063E075
:102DD00040E00E94380782E065E041E00E9411086F
:102DE00082E064E041E00E94110882E063E041E09B
:102DF0000E94110882E062E041E00E94110883E035
:102E000067E041E00E94110883E066E041E00E9433
:102E1000110883E065E041E00E94110883E063E06F
:102E200041E00E941108CF91DF910895DF93CF9385
:102E3000CDB7DEB7A1970FB6F894DEBF0FBECDBFFA
:102E40008FEF8F8F18A230C185E098A1891B8E8FDC
:102E500082E06E8D40E00E94110819A219C197E02E
:102E600089A1292F281B822F8D8F89A1833019F4E6
:102E70008D8D81508D8F83E06D8D0E945109882347
:102E800009F003C180E090E0A8E4B2E4898F9A8F52
:102E9000AB8FBC8F698D7A8D8B8D9C8D20E030E05F
:102EA0004AEF54E40E941F02DC01CB018D8B9E8B04
:102EB000AF8BB88F6D897E898F89988D20E030E047
:102EC00040E85FE30E94790388232CF481E090E0DE
:102ED0009C8B8B8B3FC06D897E898F89988D20E07C
:102EE0003FEF4FE757E40E94190318164CF5698D20
:102EF0007A8D8B8D9C8D20E030E040E251E40E9481
:102F00001F02DC01CB01BC01CD010E944900DC01A4
:102F1000CB019C8B8B8B0FC088EC90E09A8B898BBC
:102F200089899A890197F1F79A8B898B8B899C897A
:102F300001979C8B8B8B8B899C89009769F714C0B8
:102F40006D897E898F89988D0E944900DC01CB01B3
:102F50009C8B8B8B8B899C89988B8F878F8598898D
:102F60000197F1F7988B8F8783E06D8D0E9451094F
:102F7000882309F08AC088A1482F50E089A1282F12
:102F800030E0CA01880F991F880F991F820F931F85
:102F9000FC01E556FF4F80818F8F83E06D8D0E948D
:102FA00051098823D1F380E090E0A8E4B2E48B8754
:102FB0009C87AD87BE876B857C858D859E8520E04F
:102FC00030E04AEF54E40E941F02DC01CB018F8302
:102FD0009887A987BA876F81788589859A8520E047
:102FE00030E040E85FE30E94790388232CF481E01D
:102FF00090E09E838D833FC06F81788589859A8517
:1030000020E03FEF4FE757E40E94190318164CF5F4
:103010006B857C858D859E8520E030E040E251E423
:103020000E941F02DC01CB01BC01CD010E944900BE
:10303000DC01CB019E838D830FC088EC90E09C83E4
:103040008B838B819C810197F1F79C838B838D818E
:103050009E8101979E838D838D819E81009769F764
:1030600014C06F81788589859A850E944900DC01AA
:10307000CB019E838D838D819E819A8389838981F3
:103080009A810197F1F79A83898389A18F5F89A338
:1030900089A1843008F4E3CE82E06E8D41E00E9485
:1030A000110888A18F5F88A388A1843008F4CCCE52
:1030B0008F8DA1960FB6F894DEBF0FBECDBFCF9116
:1030C000DF910895DF93CF93CDB7DEB782E066E05E
:1030D00041E00E943807CF91DF910895DF93CF93AD
:1030E000CDB7DEB782E066E041E00E941108CF91E3
:1030F000DF910895DF93CF93CDB7DEB782E066E02E
:1031000040E00E941108CF91DF910895DF93CF93A3
:10311000CDB7DEB782E066E00E94EA08CF91DF918A
:103120000895DF93CF9300D00F92CDB7DEB78B8396
:103130008B819AE0692F0E94B4198A838B819AE06F
:10314000692F0E94B419892F89838A81882321F4E9
:1031500080E20E94341304C08A81805D0E9434138F
:103160008981805D0E9434130F900F900F90CF9152
:10317000DF910895DF93CF93CDB7DEB762970FB697
:10318000F894DEBF0FBECDBF1A8A8FEF898B188AE5
:103190008FEF8F870E94670E0E949F0C0E945B0C2E
:1031A0000E94E41480E060E00E947C1680E690E0DB
:1031B0000E94BB1481E060E00E947C168FE690E0E4
:1031C0000E94BB1480E060E10E947C168AE790E0D8
:1031D0000E94BB1480E00E94AA0C8A8B9A8989897C
:1031E000981749F081E066E00E947C168A890E9467
:1031F00091188A89898B8A898A3010F4188A02C0CA
:1032000081E0888B98898F859817E1F082E062E0F1
:103210000E947C168889813051F481E890E00E94F8
:10322000BB140E947D0C8A898F5F8A8B09C08AE853
:1032300090E00E94BB140E946C0C8A898F5F8A8B7D
:1032400088898F8780E090E0AAEFB3E48B879C8722
:10325000AD87BE876B857C858D859E8520E030E0BF
:103260004AEF54E40E941F02DC01CB018F83988750
:10327000A987BA876F81788589859A8520E030E0B3
:1032800040E85FE30E94790388232CF481E090E01A
:103290009E838D833FC06F81788589859A8520E0E4
:1032A0003FEF4FE757E40E94190318164CF56B8562
:1032B0007C858D859E8520E030E040E251E40E94CF
:1032C0001F02DC01CB01BC01CD010E944900DC01E1
:1032D000CB019E838D830FC088EC90E09C838B8311
:1032E0008B819C810197F1F79C838B838D819E81DB
:1032F00001979E838D838D819E81009769F76ACFA8
:103300006F81788589859A850E944900DC01CB010F
:103310009E838D838D819E819A83898389819A8101
:103320000197F1F79A83898355CF629FD001739FEC
:10333000F001829FE00DF11D649FE00DF11D929F51
:10334000F00D839FF00D749FF00D659FF00D992790
:10335000729FB00DE11DF91F639FB00DE11DF91FB4
:10336000BD01CF0111240895991B79E004C0991F74
:10337000961708F0961B881F7A95C9F780950895CF
:10338000A1E21A2EAA1BBB1BFD010DC0AA1FBB1F69
:10339000EE1FFF1FA217B307E407F50720F0A21BDB
:1033A000B30BE40BF50B661F771F881F991F1A9448
:1033B00069F760957095809590959B01AC01BD0172
:1033C000CF0108952F923F924F925F926F927F921A
:1033D0008F929F92AF92BF92CF92DF92EF92FF9225
:1033E0000F931F93CF93DF93CDB7DEB7CA1BDB0BD1
:1033F0000FB6F894DEBF0FBECDBF09942A88398876
:1034000048885F846E847D848C849B84AA84B9847C
:10341000C884DF80EE80FD800C811B81AA81B98188
:10342000CE0FD11D0FB6F894DEBF0FBECDBFED019C
:063430000895F894FFCF9F
:1034360057656C636F6D65205465616D203300546C
:10344600656D703A2020202043004D6F64653A2058
:1034560000436F6F6C696E67200048656174696E22
:1034660067200000000000000000003738392F34C4
:0C34760035362A3132332D43303D2B0017
:00000001FF
